:08000000803102288731F62F40
:100C140020001C150800863146260800F1007108E2
:100C24008631212608007A30210099009A01980122
:100C34000800640080010131890B1C2E0034F0008F
:100C44002000111E222E700823009A0008002000A4
:100C54009C01FF309B009A01911086310A260800FE
:100C64003C30260093007F3091009201CF30250064
:100C74009E0508003C3026009A007F3098009901B8
:100C84003F3025009E0508002000911E462E2300BB
:100C94009D1C4E2E1D121D161908080048302300F5
:100CA4009F0090309D0026309E0022309B009C01C6
:100CB4000800F6007608F400F5017408F0007508E1
:100CC400F1008631B0260800F6007608F400F5013C
:100CD4007408F0007508F1008631C7260800F60094
:100CE4007608F400F5017408F0007508F100863107
:100CF400DE2608003C3025009300950180309400E6
:100D0400013096007F3091009201FC309E0508006E
:100D1400F300F201731C922E7008F1007108F207BF
:100D24000310F00D0310F30C7308031D8C2E7208CE
:100D340008008631152686318631F52686318631BE
:100D440050268631863129268631863132268631EF
:100D540086313C26863186317C2608007108F300F2
:100D64007008F200F336F20CF336F20C7208260027
:100D7400980070080339F2000430F235890BBF2E55
:100D84001A08CF3972049A0008007108F300700839
:100D9400F200F336F20CF336F20C720825009100DF
:100DA40070080339F2000430F235890BD62E13088B
:100DB400CF397204930008007108F3007008F20040
:100DC400F336F20CF336F20C720826009100700828
:100DD4000339F2000430F235890BED2E1308CF39B4
:100DE40072049300080022008C013B3021008C0027
:100DF400103023008C0024008C0122008E011D3051
:100E040021008E000D3023008E0024008E0121006D
:100E14009517843022009D009E0108007430F40070
:100E24007408F7007308F5007208F400F20A031955
:100E3400F30A74088400750885000008F600760833
:100E4400F8007808031908007808863110268731DD
:100E5400142F86319B2687310030F000F100863153
:100E6400DE2687310030F000F1008631B02687316C
:100E74000030F000F1008631C726873186310D2617
:100E840087312000AF002F08B0000A303006031964
:100E9400402F3008AF002008223E860087012F082B
:100EA40081000130A0070030A13D29303006031D28
:100EB4006A2F0D302006210403196A2F0F30F20027
:100EC4008830F3008731102787312000A001A10169
:100ED4000D3020062104031D402FA001A1018731FC
:100EE40075278731402F283020002206031DEF2F5D
:100EF4002C302606031DEF2F2C302A06031DEF2F5E
:100F040029302E06031DEF2F6430F9007908F00014
:100F14002308D03E86318A268731FA007A08FB00FE
:100F24000A30F9007908F00020002408D03E863108
:100F34008A268731FA007A08FB0720002508D03E6C
:100F4400F9007908FB076430F9007908F0002708F4
:100F5400D03E86318A268731FA007A08FC000A30AE
:100F6400F9007908F00020002808D03E86318A264E
:100F74008731FA007A08FC0720002908D03EF900DE
:100F84007908FC076430F9007908F0002B08D03E9A
:100F940086318A268731FA007A08FD000A30F90082
:100FA4007908F00020002C08D03E86318A2687314B
:100FB400FA007A08FD0720002D08D03EF9007908D0
:100FC400FD077B088631712687317C0886316626C9
:100FD40087317D0886315B2608000030F2008830B6
:100FE400F30087311027080020308400003085008A
:100FF4000F3086311B26200087312B2F4534523485
:1010040052344F3452345F344E3455344D344234B8
:101014004534523453340A3400344534723472340F
:0C1024006F347234423449340A34003412
:020000040001F9
:04000E00E4FFFFDF2D
:00000001FF
